:10000000701400201D0100001901000019010000FA
:1000100000000000000000000000000000000000E0
:1000200000000000000000000000000019010000B6
:10003000000000000000000019010000190100008C
:100040001901000019010000190100001901000048
:100050001901000019010000190100001901000038
:100060001901000019010000190100001901000028
:10007000190100000000000000000000190100004C
:100080001901000019010000190100001901000008
:10009000190100000000000000000000190100002C
:1000A00019010000190100001901000019010000E8
:1000B000000000001901000010B5064C2378002B49
:1000C00007D1054B002B02D0044800E000BF0123FC
:1000D000237010BD2C04002000000000C0050000AB
:1000E000084B10B5002B03D00749084800E000BFBB
:1000F00007480368002B00D110BD064B002BFBD036
:100100009847F9E70000000030040020C005000017
:10011000C005000000000000FEE7C0462549264853
:10012000F8B5814209D0254B984206D2C243D21875
:10013000920801329200224B98472248224B984263
:1001400007D2C243D21892080132920000211F4BFD
:100150009847FF211E4B1F4A8B4393609023032532
:1001600002240C2708261C4AFD395B00D1501B4A8B
:10017000D378AB432343D370D378BB433343D3709B
:100180003022174B987B9043202210439873997B21
:10019000B9433143997380219A7BAA4322439A73CE
:1001A000104A53680B4353600F4B98470F4B9847C7
:1001B000FEE7C046C0050000000000202C0400201F
:1001C000190300002C0400206C0400209D03000093
:1001D0000000000000ED00E0007000410050004110
:1001E0000048004100400041D1020000F101000040
:1001F0002D4A2E49136AF0B50B401362C0238022AA
:1002000034200224DB0552009A6092185A60195C6F
:10021000F23AFF3A914321431954012146341955CA
:100220001C5C2240202422431A5449229954204A1B
:10023000FE31136A0B4313621E4A1F4B5A801F4B39
:100240001F4A1A60C02292025A600422D9690A42E7
:10025000FCD102211B4A9A811A680A431A600223C0
:10026000164AD1690B42FCD1C026C0250121F605F2
:100270002D02154F114AB56054203C00137E1942DF
:10028000FCD080B20134108520780028F6D10F4BC5
:10029000B561C046013B002BFBD10C4B7561C046DC
:1002A000013B002BFBD1E7E700080040FFFCFFFF0C
:1002B0000004004014400000000C00400008004210
:1002C000040010402BF6FFFF8805000050C300001B
:1002D00070B50D4E0D4D0024AD1BAD1005D0A30023
:1002E000F35801349847A542F9D100F057F9084E68
:1002F000084D0024AD1BAD1005D0A300F358013408
:100300009847A542F9D170BDA8050000A8050000D6
:10031000A8050000B0050000F0B505000F2A2FD990
:100320000B0003439B0734D116000C000300103E62
:10033000350901352D01451927681F6067685F6021
:10034000A7689F60E7681034DF6010339D42F3D1E7
:100350000F239E431036851989191340032B1AD990
:100360001E1F0023B4080134A400CF58EF500433FB
:10037000A342FAD10324A643331D2240C918ED1825
:10038000002A05D00023CC5CEC5401339342FAD10F
:10039000F0BD0500F6E71A00F2E7C046F0B58307A6
:1003A00043D0541E002A3FD0CEB20200032502E003
:1003B0001A00013C38D3531C16702B42F8D1032C81
:1003C0002AD9FF220A40150215432A0415430F2C8F
:1003D00014D927001A00103F3E09013636019E1934
:1003E000156055609560D56010329642F8D10F22A5
:1003F00097431037DB191440032C0DD91A00271F1F
:10040000BE080136B6009E1920C2B242FCD10322BA
:1004100097430437DB191440002C05D0C9B21C19CE
:10042000197001339C42FBD1F0BD14000300C6E7F4
:10043000034B10B5002B02D0024800F005F810BDA8
:10044000000000005904000010B501000023002244
:10045000002000F01FF810BD70B5094B094CE41ADC
:10046000A41009D0084AA518AD00ED182B68013C6E
:100470009847043D002CF9D100F09AF870BDC046B1
:10048000BC050000C0050000FFFFFF3F7047C046ED
:100490007047C046F0B54E464546DE465746E0B585
:1004A000364D83B00600286898460F009146FFF746
:1004B000EDFF334B1C68A4235B00E058002852D0AA
:1004C00043681F2B13DC5A1C0192002E28D1019A7D
:1004D00002339B0042601F502868FFF7D9FF0020BD
:1004E00003B03CBC90469946A246AB46F0BD254BB6
:1004F000002B3DD0C820400000E000BF002837D0CE
:10050000A42200235200A15843600160A050403251
:10051000835004328350013301930023002ED6D040
:100520009A00924682444A46882154466250C42228
:100530005200914681444A468739994012688B4659
:100540000A4394464A46614611608422414652005D
:10055000A150022EBBD102005C468D32FF321168E1
:100560000C431460B3E720004D30FF30E050A7E7A4
:100570002868FFF78DFF01204042B1E728040020E2
:10058000980500000000000054686973206973201A
:100590006120746573740A0000000020F8B5C0463D
:1005A000F8BC08BC9E46704731040000E100000022
:1005B000F8B5C046F8BC08BC9E467047B9000000BC
:1005C00000000000EC02002054030020BC030020C7
:1005D000000000000000000000000000000000001B
:1005E000000000000000000000000000000000000B
:1005F00000000000000000000000000000000000FB
:1006000000000000000000000000000000000000EA
:1006100000000000000000000000000000000000DA
:1006200000000000000000000000000000000000CA
:1006300000000000000000000000000000000000BA
:1006400000000000000000000000000000000000AA
:10065000000000000000000000000000000000009A
:100660000000000000000000010000000000000089
:100670000E33CDAB34126DE6ECDE05000B0000004E
:10068000000000000000000000000000000000006A
:10069000000000000000000000000000000000005A
:1006A000000000000000000000000000000000004A
:1006B000000000000000000000000000000000003A
:0C09E0000000000000000000480400209F
:00000001FF
